:020000040800F2
:1000000058040020D10000084D0F0008CD0E000854
:1000100000000000000000000000000000000000E0
:10002000000000000000000000000000510F000868
:1000300000000000000000004F0F0008530F0008F0
:10004000E3000008E3000008E3000008E300000804
:10005000E3000008E3000008E3000008E3000008F4
:10006000E3000008E3000008E3000008E3000008E4
:10007000E3000008E3000008E3000008A90F0008FF
:10008000E3000008E300000800000000E3000008AF
:10009000E3000008E3000008E3000008E3000008B4
:1000A000E3000008E3000008E3000008E3000008A4
:1000B000E300000800000000E30000080348854654
:1000C00000F08EF800480047611300085804002033
:1000D0000448804704480047FEE7FEE7FEE7FEE7E6
:1000E000FEE7FEE7A50F0008BD00000830B50B468F
:1000F000014600202022012409E00D46D5409D4202
:1001000005D31D469540491B254695404019154687
:10011000521E002DF1DC30BDF0B51FB406460020A4
:1001200082B005464024019100901BE001992246CF
:100130000F46304600F020F8049A059B801A99413A
:1001400010D310461946224600F039F8361A8F416E
:100150000197224601200021009F00F030F8381856
:100160004D4100902046641E0028DFDC019B009872
:100170002946324607B0F0BD10B5202A04DB0846F8
:10018000203AD040002110BD0B46D340D04020245F
:10019000A21A91400843194610BDD2B201E0027084
:1001A000401C491EFBD270470022F6E710B51346EB
:1001B0000A4604461946FFF7F0FF204610BD10B569
:1001C000202A04DB0146203A9140002010BD9140D6
:1001D00020239C1A0346E3401943904010BD0000C1
:1001E000064C0125064E05E0E36807CC2B430C3C8A
:1001F00098471034B442F7D3FFF764FFCC130008DC
:10020000EC13000870B5044600F0C6F80546601C03
:1002100002D004480078241800F0BEF8401BA04229
:10022000FAD370BD00000020FCB500230124A1E03A
:1002300027462A469F403A4073D04D68012D05D08D
:10024000022D03D0112D01D0122D16D18568032661
:10025000AC465D00AE46AE406546B543AC46CE68A2
:100260007546AE4065462E43866046680D79BE43AE
:10027000ED06ED0F9D4035434560C6685F000325E0
:10028000BD40AE46AE4335468E68BE402E43C66086
:100290004E68022E01D0122E14D1DE08B600361898
:1002A0000196366A5D07B446EE0E0F25B5400096FE
:1002B0006646AE43B4460D69009EB54066462E4381
:1002C000019D2E6206687546AE430D79AD07AD0FF0
:1002D000BD40354305604D68ED004AD5284DAE69F7
:1002E0002643AE61AD699E08ED07ED0F0095254DE3
:1002F000B6007519AC46AD689E07360F0F27B7409C
:10030000BD430927FF06B84201D1002710E01E4F68
:10031000B84201D101270BE01C4FB84202D102279D
:1003200006E026E01A4FB84201D1032700E0052776
:10033000B7402F436546AF60164E35684F6895430A
:10034000FF0300D51543356075684F689543BF03BB
:1003500000D515437560B5684F689543FF0200D519
:100360001543B560F5684F689543BF0200D5154346
:10037000F5605B1C0A681546DA4000D058E7FCBD02
:10038000001002400000014000040048000800483E
:10039000000C0048000401400148806870470000DC
:1003A0000000002002488168027889188160704747
:1003B0000000002010B506480168102211430160BA
:1003C000002000F007F800F027F8002010BD000022
:1003D0000020024070B504460D4D7D202978C000F4
:1003E000FFF784FE01460B480068FFF77FFE00F030
:1003F000BFFA002809D1042C07D200222146401E52
:1004000000F02AF800206C6070BD012070BD000073
:10041000000000200C00002008B508488169012276
:1004200011438161816911400091C26901040A434D
:10043000C261C0690840009008BD00000010024081
:10044000002805DBC106C90E01208840014908606B
:100450007047000000E100E010B500F04FFF10BD54
:10046000F8B50F46060059D03A4D2868C007C00FAE
:10047000B84209D2286840084000384328602868FC
:10048000C007C00FB84249D13068334C81070CD542
:10049000400704D56068072109020843606060686E
:1004A000F0218843B168084360603078C00726D0E7
:1004B000706801280ED0216802280ED08907002913
:1004C0002CDA61688908890001436160FFF764FFE5
:1004D00000900DE021688903F1E78901EFE7FFF75C
:1004E0005BFF0099411A1D48814201D90320F8BDE4
:1004F00060680C210840716889008842EFD1286843
:10050000C007C00FB8420BD92868400840003843E4
:1005100028602868C007C00FB84201D00120F8BD8C
:100520003078400706D56068072109028843F168E2
:100530000843606000F018F86168094A0906090F6D
:10054000515CC840074908600020FFF743FF0020C6
:10055000F8BD000000200240001002408813000097
:10056000BC1300080C00002010B514A30FCB88B0FA
:100570006C460FC415A30FCB0FC4184A51680C204A
:100580000B4603401648042B16D0082B14D18B02BF
:100590001B0F6C46E45CD26A04AB1207120F9A5C24
:1005A000C90305D500231946FFF7B6FD214601E032
:1005B00020460C4900F08AFE08B010BD0203040575
:1005C000060708090A0B0C0D0E0F10100102030498
:1005D00005060708090A0B0C0D0E0F10001002404B
:1005E00000127A0000093D00FEB5040070D02078AA
:1005F000DC4DC0074AD068680007800F012807D08B
:1006000068680007800F022809D16868C00306D512
:10061000286880033AD560680028E7D036E0616832
:10062000012914D001208004002901D0052914D00B
:100630002A68012109048A432A60296881432960C4
:100640006068002816D0FFF7A7FE06460EE028686F
:100650000121090408432860F2E729680143296061
:10066000F5E7FFF799FE801B64286ED828688003A1
:10067000F7D50BE0FFF790FE064604E0FFF78CFE8F
:10068000801B6428F1D828688003F7D420780126DD
:10069000800700283CDA68680007800F07D0686888
:1006A0000007800F022809D16868C00306D42868B3
:1006B000800716D5E06801280AD112E0E06800281A
:1006C000286816D030432860FFF766FE074605E02D
:1006D00043E1FFF761FEC01B0228C6D828688007E7
:1006E000F7D52868F82188432169C90008432860A4
:1006F0000EE0400840002860FFF74EFE074604E089
:10070000FFF74AFEC01B0228AFD828688007F7D43D
:100710002078000722D5E0690028686A0ED03043AF
:100720006862FFF739FE074604E0FFF735FEC01B9D
:1007300002289AD8686A8007F7D50FE04008400081
:100740006862FFF729FE074605E09DE0FFF724FEFB
:10075000C01B022889D8686A8007F7D4207804274C
:100760004007002860DA00200190E869C00008D442
:10077000E969B8060143E961E96901400120009196
:10078000019079480168C90511D4016882151143A7
:100790000160FFF701FE009005E0FFF7FDFD009905
:1007A000401A642870D870480068C005F5D5A06864
:1007B00001280AD0002801D0052810D0286A400856
:1007C00040002862286AB84301E0286A3043286262
:1007D000A068002812D0FFF7DFFD00900AE0286A29
:1007E00038432862F1E7FFF7D7FD0099411A5F48C7
:1007F000814249D8286A8007F5D50DE0FFF7CCFD86
:10080000009006E0FFF7C8FD0099411A5748814261
:100810003AD8286A8007F5D40198002804D0E969FD
:10082000012000078143E9612078C00635D5606961
:1008300001280CD0401D686B23D038436863686B77
:10084000400840006863FFF7A7FD064622E0686B9A
:1008500038436863686B30436863FFF79DFD064665
:1008600004E0FFF799FD801B02285BD8686B8007C6
:10087000F7D5686BF8218843A169C900084368630C
:100880000BE0B8436863F4E74CE0FFF785FD801B9D
:10089000022847D8686B8007F7D4206A00285ED00A
:1008A00069680907890F022942D001263606022805
:1008B000286805D0B0432860FFF76EFD044633E09A
:1008C000B0432860FFF768FD074604E0FFF764FDCA
:1008D000C01B022826D828688001F7D4E86AE16A9C
:1008E000000900010843E862616AA06A0843696878
:1008F0003D22120491430843686028683043286011
:10090000FFF74AFD044604E0FFF746FD001B0228FE
:1009100008D828688001F7D521E0FFF73DFD001BCE
:10092000022801D90320FEBD28688001F5D416E015
:100930000128F8D06868E96A01221204636A02405B
:100940009A420AD10907E26A090F914205D10F21A3
:1009500089040840A16A884201D00120FEBD002020
:10096000FEBD00000010024000700040881300002F
:10097000094910B5401E884201D9012010BD074C1D
:1009800060610321081F00F0B9FC0020A06107206E
:100990002061002010BD0000FFFFFF0000E000E02C
:1009A00070477047F0B502462032137F012B21D0EB
:1009B000012515770223537706687468B36870279A
:1009C000BC430F682743776000680B4CA04208D0F7
:1009D000AC07A04205D0094CA04202D0084CA0426E
:1009E00004D180244968A3431943816055770020CE
:1009F0001077F0BD0220F0BD002C01400004004043
:100A00000040014070B5040005D025462035687FC0
:100A1000002802D006E0012070BD00202877204683
:100A200000F014F802206877211D206800F0C4FA55
:100A300001204034A071A877E87720706070A07022
:100A4000E070207160716877002070BD08B50068A3
:100A50000121890788420FD10848C1690122114349
:100A6000C161C06910400022009011460F20FFF7BD
:100A7000F3FC0F20FFF7E4FC08BD0000001002406B
:100A8000F8B5054604462035287F012817D00126F1
:100A90002E7702206877226890687727FF23B84373
:100AA0001B02984390600A68502A31D00EDC202A3D
:100AB0004BD006DC002A48D0102A3AD145E002206B
:100AC000F8BD302A41D0402A33D136E0602A27D001
:100AD000702A12D001200003121A2AD0824228D193
:100AE000CB684A688968206800F0BDFA2068816890
:100AF00001229203114381601BE0CB684A68896838
:100B0000206800F0B0FA216888683843886010E0F7
:100B1000CA684968206800F0B5FB5021206806E0EB
:100B2000CA684968206800F0BEFB6021206800F0B8
:100B3000A5FA6E7700202877F8BDCA684968206852
:100B400000F0A0FB40212068F1E711462068EEE7A5
:100B5000704770B50446006801690025C9438907DC
:100B6000002915DBC168C943890711D4E91E016159
:100B700001202077206880698007204602D0FFF797
:100B8000E7FF04E000F0BCF8204600F043F92577C9
:100B900020680169C943490717D4C168C943490797
:100BA00013D40421C94301610220207720688069A1
:100BB0008005800F204602D0FFF7CAFF04E000F056
:100BC0009FF8204600F026F9257720680169C9437F
:100BD000090716D4C168C943090712D40821C943BB
:100BE0000161042020772068C0698007204602D078
:100BF000FFF7AEFF04E000F083F8204600F00AF9AA
:100C0000257720680169C943C90617D4C168C9435B
:100C1000C90613D41021C943016108202077206838
:100C2000C0698005800F204602D0FFF791FF04E0E5
:100C300000F066F8204600F0EDF82577206801699D
:100C4000C943C90708D1C168C943C90704D1891E6E
:100C50000161204600F038F920680169C94309069E
:100C600009D4C168C943090605D48021C94301617B
:100C70002046FFF795FE20680169C943490609D45B
:100C8000C168C943490605D44021C94301612046D2
:100C900000F01BF920680169C943890609D4C168BD
:100CA000C943890605D42021C94301612046FFF7C5
:100CB00078FE70BD10B586B0044614216846FFF773
:100CC00073FA012120688907884214D10B484269D0
:100CD00049130A4342614069084005902020009072
:100CE000002002210290039001910491092069469D
:100CF000C006FFF799FA06B010BD000000100240D0
:100D00007047F8B5064604462036307F0D46012868
:100D10000BD0012008273077002A08D0042A16D0EB
:100D2000082A2AD00C2A4DD137E00220F8BD2068CD
:100D300000F0ACF9206881693943816120688169DC
:100D4000042291438161206881692A6912E0206848
:100D500000F0E0F9206881690122D202114381612B
:100D600020688269012189028A4382612068816941
:100D70002A6912021143816124E0206800F00AFA16
:100D80002068C1693943C1612068C1690422914367
:100D9000C1612068C1692A6912E0206800F03CFA4C
:100DA0002068C1690122D2021143C1612068C26971
:100DB000012189028A43C2612068C1692A6912023D
:100DC0001143C16100203077F8BD70B5040005D033
:100DD00025462035687F002802D006E0012070BD3E
:100DE00000202877204600F014F802206877211DA3
:100DF000206800F0E1F801204034A071A877E8777E
:100E000020706070A070E0702071607168770020C1
:100E100070BD70477047000030B504460223203093
:100E200000290AD004290DD02046403008290ED0D0
:100E30004278012A10D0012030BD827F012AFAD1E8
:100E400083770AE0C27F012AF5D1C37705E00278F3
:100E5000012AF0D1037000E043700122206800F005
:100E6000F5F8144A20681449904207D0884205D00A
:100E7000124B984202D0124B984204D1436C012588
:100E8000ED032B43436420680123904207D09A0767
:100E9000904204D00B4A904201D0884204D181682C
:100EA0004907490F062902D0016819430160002053
:100EB00030BD0000002C01400040014000440140D2
:100EC000004801400004004070477047FEE7000002
:100ED00010B58EB000240794089409940A940B94DA
:100EE0001C2168460C94FFF75FF90121154889071A
:100EF00001601549846041603B210461C16080212B
:100F00008161FFF77FFD01200003079007A90D48CD
:100F1000FFF7B6FD0B48FFF758FF0B940BA90948E4
:100F20000C94FFF73FFD6020009001940294002292
:100F3000694604940348FFF7E4FE0248FFF7BAFE4F
:100F40000EB010BD100000207F3E000070477047BB
:100F5000704710B5FFF726FA10BD30B591B03021BB
:100F60006846FFF721F900240D94012003900E94A8
:100F70000225102009940490009505200F94C004C8
:100F80000A900C9408950B946846FFF72DFB0720F8
:100F90000C900E9401210D950F940CA8FFF760FAA8
:100FA00011B030BD7047000010B50248FFF7D1FD09
:100FB00010BD000010000020F0B502681D4B012498
:100FC000A4071D4D984203D0A04201D0A84203D1EE
:100FD0007026B2434E683243184E194F98420DD0D6
:100FE000A0420BD0A84209D0164CA04206D0B04275
:100FF00004D0B84202D0144CA04204D103242402ED
:10100000A243CC6822438024A2434C69224302605D
:101010008A68C2620A688262984206D0B04204D0EE
:10102000B84202D0084A904201D109690163012106
:101030004161F0BD002C014000040040004001402F
:1010400000440140002000400048014010B5CB069C
:10105000DB0E0121046A99408C430462016A9A40C4
:101060001143016210BD30B58468FF252D021B02BB
:101070001343AC430B432343836030BD826870232A
:101080009A430A4307210A4382607047F0B5026A17
:10109000520852000262056A436882697024A243C2
:1010A00092080C6892001443022295438A68164EF7
:1010B0002A43144DA84207D0B04205D0134FB8427E
:1010C00002D0134FB84206D10827BA43CF6817435E
:1010D000042297433A46A84207D0B04205D00B4DB0
:1010E000A84202D00A4DA84206D103252D02AB43E7
:1010F0004D691D438B692B4343608461496841639B
:101100000262F0BD002C014000400140004401405B
:101110000048014070B5026A10239A430262056AD2
:101120004268836973242402A3430C6824021C438D
:1011300020239D438B681B012B43124DA84208D1ED
:101140001D46CB688026B5431B012B434025AB438E
:1011500008E00D4DA84205D00C4DA84202D00C4D20
:10116000A84208D10325AD02AA434D69AD0015433D
:101170008A6992002A4342608461496881630362FC
:1011800070BD0000002C01400040014000440140BF
:101190000048014070B5026AFF2301339A4302629E
:1011A000056A4368C2697024A24392080C689200E1
:1011B00014430122520295438A6812022A43124DB7
:1011C000A84208D11546CA68C614B54312022A437C
:1011D0000515AA4308E00D4DA84205D00C4DA842C4
:1011E00002D00C4DA84208D103252D03AB434D6915
:1011F0002D011D438B691B012B434360C46149686A
:10120000C163026270BD0000002C0140004001403B
:10121000004401400048014030B5026A01231B032D
:101220009A430262046A4268C36973252D02AB4384
:101230000D682D021D4301235B039C438B681B0338
:1012400023430C4CA04208D00B4CA04205D00B4CC1
:10125000A04202D00A4CA04205D10124A403A2431B
:101260004C69A40122434260C5614968016403627C
:1012700030BD0000002C014000400140004401400E
:101280000048014030B5036A046A640864000462DF
:101290008469F025AC43120122430A24A3430B4383
:1012A0008261036230BD30B5036A1024A343036238
:1012B0008469036A0F252D031203AC432243A02443
:1012C000A343090119438261016230BDF8B5040CE2
:1012D0008BB2264682B25E430D0C1046370C584343
:1012E000360480190021794116466E43370C3604C6
:1012F0008019794126466E438919F8BD8307FF227C
:10130000DB0E9A408907090E9940002808DB830804
:1013100009489B001B1818689043084318607047E1
:101320000007000F0838830804489B001B18D86981
:1013300090430843D861704700E400E000ED00E00E
:1013400002E008C8121F08C1002AFAD1704770478E
:10135000002001E001C1121F002AFBD170470000EC
:1013600008B5FFF727F8FFF7F8FD12484269012199
:1013700089050A43426142690A4000924269491163
:101380000A434261406908400090FFF7A1FD002137
:101390000948FFF741FD0525AC077D277F0102269F
:1013A00065633846FEF72EFF66637D200001FEF779
:1013B00029FFF5E7001002401000002000000000A7
:1013C000000000000102030406070809EC130008EE
:1013D000000000201000000040130008FC1300086B
:1013E0001000002048040000501300080100000015
:0C13F000040000000000000000127A0061
:04000005080000BD32
:00000001FF
